{
  "contractName": "Authorisation",
  "abi": [
    {
      "constant": false,
      "inputs": [],
      "name": "renounceOwnership",
      "outputs": [],
      "payable": false,
      "stateMutability": "nonpayable",
      "type": "function",
      "signature": "0x715018a6"
    },
    {
      "constant": true,
      "inputs": [],
      "name": "owner",
      "outputs": [
        {
          "name": "",
          "type": "address"
        }
      ],
      "payable": false,
      "stateMutability": "view",
      "type": "function",
      "signature": "0x8da5cb5b"
    },
    {
      "constant": true,
      "inputs": [],
      "name": "isOwner",
      "outputs": [
        {
          "name": "",
          "type": "bool"
        }
      ],
      "payable": false,
      "stateMutability": "view",
      "type": "function",
      "signature": "0x8f32d59b"
    },
    {
      "constant": false,
      "inputs": [
        {
          "name": "newOwner",
          "type": "address"
        }
      ],
      "name": "transferOwnership",
      "outputs": [],
      "payable": false,
      "stateMutability": "nonpayable",
      "type": "function",
      "signature": "0xf2fde38b"
    },
    {
      "anonymous": false,
      "inputs": [
        {
          "indexed": false,
          "name": "authorisationId",
          "type": "uint256"
        },
        {
          "indexed": false,
          "name": "_owner",
          "type": "address"
        },
        {
          "indexed": false,
          "name": "_reader",
          "type": "address"
        }
      ],
      "name": "AuthorisationGranted",
      "type": "event",
      "signature": "0xb2ef448b96af9dbce720e7040ba93b73a658da8496a4355b3bbc7c87e0d554a8"
    },
    {
      "anonymous": false,
      "inputs": [
        {
          "indexed": true,
          "name": "_reader",
          "type": "address"
        },
        {
          "indexed": true,
          "name": "_owner",
          "type": "address"
        }
      ],
      "name": "AuthorisationRequested",
      "type": "event",
      "signature": "0x7bda05ba942932c2f0c54ba1eeb7752f0fa25b642749329b3f1036afe1bcdd24"
    },
    {
      "anonymous": false,
      "inputs": [
        {
          "indexed": true,
          "name": "_owner",
          "type": "address"
        },
        {
          "indexed": true,
          "name": "_reader",
          "type": "address"
        }
      ],
      "name": "AuthorisationRemoved",
      "type": "event",
      "signature": "0x4a19060d67fbdb35b5d8d87bf291efa5ff80cd6129d938bfe609a397696a8843"
    },
    {
      "anonymous": false,
      "inputs": [
        {
          "indexed": true,
          "name": "previousOwner",
          "type": "address"
        },
        {
          "indexed": true,
          "name": "newOwner",
          "type": "address"
        }
      ],
      "name": "OwnershipTransferred",
      "type": "event",
      "signature": "0x8be0079c531659141344cd1fd0a4f28419497f9722a3daafe3b4186f6b6457e0"
    },
    {
      "constant": false,
      "inputs": [
        {
          "name": "_reader",
          "type": "address"
        }
      ],
      "name": "giveAuthorisation",
      "outputs": [],
      "payable": false,
      "stateMutability": "nonpayable",
      "type": "function",
      "signature": "0xd7414665"
    },
    {
      "constant": false,
      "inputs": [
        {
          "name": "_reader",
          "type": "address"
        }
      ],
      "name": "removeAuthorisation",
      "outputs": [],
      "payable": false,
      "stateMutability": "nonpayable",
      "type": "function",
      "signature": "0x12805ab8"
    },
    {
      "constant": true,
      "inputs": [
        {
          "name": "_owner",
          "type": "address"
        },
        {
          "name": "_reader",
          "type": "address"
        }
      ],
      "name": "isAuthorised",
      "outputs": [
        {
          "name": "",
          "type": "bool"
        }
      ],
      "payable": false,
      "stateMutability": "view",
      "type": "function",
      "signature": "0xac83a81e"
    },
    {
      "constant": false,
      "inputs": [
        {
          "name": "_owner",
          "type": "address"
        }
      ],
      "name": "requestAuthorisation",
      "outputs": [],
      "payable": false,
      "stateMutability": "nonpayable",
      "type": "function",
      "signature": "0x267076ea"
    },
    {
      "constant": false,
      "inputs": [
        {
          "name": "_reader",
          "type": "address"
        }
      ],
      "name": "approveAuthorisation",
      "outputs": [],
      "payable": false,
      "stateMutability": "nonpayable",
      "type": "function",
      "signature": "0x454831ab"
    }
  ],
  "bytecode": "0x6080604052600061001d6100c0640100000000026401000000009004565b9050806000806101000a81548173ffffffffffffffffffffffffffffffffffffffff021916908373ffffffffffffffffffffffffffffffffffffffff1602179055508073ffffffffffffffffffffffffffffffffffffffff16600073ffffffffffffffffffffffffffffffffffffffff167f8be0079c531659141344cd1fd0a4f28419497f9722a3daafe3b4186f6b6457e060405160405180910390a3506100c8565b600033905090565b610bab806100d76000396000f3fe608060405234801561001057600080fd5b50600436106100b0576000357c0100000000000000000000000000000000000000000000000000000000900480638da5cb5b116100835780638da5cb5b146101135780638f32d59b14610131578063ac83a81e1461014f578063d74146651461017f578063f2fde38b1461019b576100b0565b806312805ab8146100b5578063267076ea146100d1578063454831ab146100ed578063715018a614610109575b600080fd5b6100cf60048036036100ca9190810190610951565b6101b7565b005b6100eb60048036036100e69190810190610951565b610259565b005b61010760048036036101029190810190610951565b61038a565b005b61011161043d565b005b61011b610543565b6040516101289190610a7a565b60405180910390f35b61013961056c565b6040516101469190610a95565b60405180910390f35b6101696004803603610164919081019061097a565b6105ca565b6040516101769190610a95565b60405180910390f35b61019960048036036101949190810190610951565b6105de565b005b6101b560048036036101b09190810190610951565b6105f2565b005b6000600160006101c5610645565b73ffffffffffffffffffffffffffffffffffffffff1673ffffffffffffffffffffffffffffffffffffffff16815260200190815260200160002060010160008373ffffffffffffffffffffffffffffffffffffffff1673ffffffffffffffffffffffffffffffffffffffff16815260200190815260200160002060006101000a81548160ff02191690831515021790555050565b610261610645565b6002600061026d610645565b73ffffffffffffffffffffffffffffffffffffffff1673ffffffffffffffffffffffffffffffffffffffff16815260200190815260200160002060000160006101000a81548173ffffffffffffffffffffffffffffffffffffffff021916908373ffffffffffffffffffffffffffffffffffffffff1602179055506001600260006102f6610645565b73ffffffffffffffffffffffffffffffffffffffff1673ffffffffffffffffffffffffffffffffffffffff16815260200190815260200160002060010160008373ffffffffffffffffffffffffffffffffffffffff1673ffffffffffffffffffffffffffffffffffffffff16815260200190815260200160002060006101000a81548160ff02191690831515021790555050565b6000600260008373ffffffffffffffffffffffffffffffffffffffff1673ffffffffffffffffffffffffffffffffffffffff16815260200190815260200160002060010160006103d8610645565b73ffffffffffffffffffffffffffffffffffffffff1673ffffffffffffffffffffffffffffffffffffffff16815260200190815260200160002060006101000a81548160ff02191690831515021790555061043a610434610645565b8261064d565b50565b61044561056c565b610484576040517f08c379a000000000000000000000000000000000000000000000000000000000815260040161047b90610ad0565b60405180910390fd5b600073ffffffffffffffffffffffffffffffffffffffff166000809054906101000a900473ffffffffffffffffffffffffffffffffffffffff1673ffffffffffffffffffffffffffffffffffffffff167f8be0079c531659141344cd1fd0a4f28419497f9722a3daafe3b4186f6b6457e060405160405180910390a360008060006101000a81548173ffffffffffffffffffffffffffffffffffffffff021916908373ffffffffffffffffffffffffffffffffffffffff160217905550565b60008060009054906101000a900473ffffffffffffffffffffffffffffffffffffffff16905090565b60008060009054906101000a900473ffffffffffffffffffffffffffffffffffffffff1673ffffffffffffffffffffffffffffffffffffffff166105ae610645565b73ffffffffffffffffffffffffffffffffffffffff1614905090565b60006105d68383610778565b905092915050565b6105ef6105e9610645565b8261064d565b50565b6105fa61056c565b610639576040517f08c379a000000000000000000000000000000000000000000000000000000000815260040161063090610ad0565b60405180910390fd5b6106428161080f565b50565b600033905090565b6106578282610778565b6107745781600160008473ffffffffffffffffffffffffffffffffffffffff1673ffffffffffffffffffffffffffffffffffffffff16815260200190815260200160002060000160006101000a81548173ffffffffffffffffffffffffffffffffffffffff021916908373ffffffffffffffffffffffffffffffffffffffff16021790555060018060008473ffffffffffffffffffffffffffffffffffffffff1673ffffffffffffffffffffffffffffffffffffffff16815260200190815260200160002060010160008373ffffffffffffffffffffffffffffffffffffffff1673ffffffffffffffffffffffffffffffffffffffff16815260200190815260200160002060006101000a81548160ff0219169083151502179055505b5050565b6000600160008473ffffffffffffffffffffffffffffffffffffffff1673ffffffffffffffffffffffffffffffffffffffff16815260200190815260200160002060010160008373ffffffffffffffffffffffffffffffffffffffff1673ffffffffffffffffffffffffffffffffffffffff16815260200190815260200160002060009054906101000a900460ff16905092915050565b600073ffffffffffffffffffffffffffffffffffffffff168173ffffffffffffffffffffffffffffffffffffffff16141561087f576040517f08c379a000000000000000000000000000000000000000000000000000000000815260040161087690610ab0565b60405180910390fd5b8073ffffffffffffffffffffffffffffffffffffffff166000809054906101000a900473ffffffffffffffffffffffffffffffffffffffff1673ffffffffffffffffffffffffffffffffffffffff167f8be0079c531659141344cd1fd0a4f28419497f9722a3daafe3b4186f6b6457e060405160405180910390a3806000806101000a81548173ffffffffffffffffffffffffffffffffffffffff021916908373ffffffffffffffffffffffffffffffffffffffff16021790555050565b60006109498235610b3f565b905092915050565b60006020828403121561096357600080fd5b60006109718482850161093d565b91505092915050565b6000806040838503121561098d57600080fd5b600061099b8582860161093d565b92505060206109ac8582860161093d565b9150509250929050565b6109bf81610b01565b82525050565b6109ce81610b13565b82525050565b60006109e1602683610af0565b91507f4f776e61626c653a206e6577206f776e657220697320746865207a65726f206160008301527f64647265737300000000000000000000000000000000000000000000000000006020830152604082019050919050565b6000610a47602083610af0565b91507f4f776e61626c653a2063616c6c6572206973206e6f7420746865206f776e65726000830152602082019050919050565b6000602082019050610a8f60008301846109b6565b92915050565b6000602082019050610aaa60008301846109c5565b92915050565b60006020820190508181036000830152610ac9816109d4565b9050919050565b60006020820190508181036000830152610ae981610a3a565b9050919050565b600082825260208201905092915050565b6000610b0c82610b1f565b9050919050565b60008115159050919050565b600073ffffffffffffffffffffffffffffffffffffffff82169050919050565b6000610b4a82610b51565b9050919050565b600073ffffffffffffffffffffffffffffffffffffffff8216905091905056fea265627a7a72305820574bc209c1de22ad4fdb5d870c678df73b145a48f466d6c8c63266d494c534c16c6578706572696d656e74616cf50037",
  "source": "pragma solidity 0.5.7;\npragma experimental ABIEncoderV2;\n\nimport \"./Ownable.sol\";\nimport \"./SafeMath.sol\";\n\n\n/**\n * @dev Contract module which provides an authorisation control mechanism, where\n * there is an 'owner' that can grant access to a specific 'reader'.\n * The 'reader' can request access to an 'owner'.\n */\ncontract Authorisation is Ownable {\n    using SafeMath for uint256;\n    using SafeMath32 for uint32;\n    using SafeMath16 for uint16;\n\n    event AuthorisationGranted(\n        uint256 authorisationId,\n        address _owner,\n        address _reader\n    );\n    event AuthorisationRequested(\n        address indexed _reader,\n        address indexed _owner\n    );\n    event AuthorisationRemoved(address indexed _owner, address indexed _reader);\n\n    struct AuthorisationStruct {\n        address owner;\n        mapping(address => bool) allowed;\n    }\n\n    struct RequestAuthorisationStruct {\n        address reader;\n        mapping(address => bool) requested;\n    }\n\n    mapping(address => AuthorisationStruct) authorisationStructs;\n    mapping(address => RequestAuthorisationStruct) requestAuthorisationStructs;\n\n    /**\n     * @dev Gives authorisation to the '_reader'.\n     */\n    function giveAuthorisation(address _reader) public {\n        _authorise(_msgSender(), _reader);\n    }\n\n    /**\n     * @dev Removes authorisation to the '_reader'.\n     */\n    function removeAuthorisation(address _reader) public {\n        authorisationStructs[_msgSender()].allowed[_reader] = false;\n    }\n\n    /**\n     * @dev Check authorisation of the '_reader' for the '_owner'.\n     */\n    function isAuthorised(address _owner, address _reader)\n        public\n        view\n        returns (bool)\n    {\n        return _isAuthorised(_owner, _reader);\n    }\n\n    /**\n     * @dev Request auhtorisation of the sender to the '_owner'.\n     */\n    function requestAuthorisation(address _owner) public {\n        requestAuthorisationStructs[_msgSender()].reader = _msgSender();\n        requestAuthorisationStructs[_msgSender()].requested[_owner] = true;\n    }\n\n    /**\n     * @dev Approves authorisation by the sender to the '_reader'.\n     */\n    function approveAuthorisation(address _reader) public {\n        requestAuthorisationStructs[_reader].requested[_msgSender()] = false;\n        _authorise(_msgSender(), _reader);\n    }\n\n    /**\n     * @dev Gives authorisation to the '_reader'. Only the '_owner' can execute it.\n     */\n    function _authorise(address _owner, address _reader) private {\n        if (!_isAuthorised(_owner, _reader)) {\n            authorisationStructs[_owner].owner = _owner;\n            authorisationStructs[_owner].allowed[_reader] = true;\n        }\n    }\n\n    /**\n     * @dev Gives authorisation to the '_reader'. Only the '_owner' can execute it.\n     */\n    function _isAuthorised(address _owner, address _reader)\n        private\n        view\n        returns (bool)\n    {\n        return authorisationStructs[_owner].allowed[_reader];\n    }\n}",
  "sourcePath": "C:/workspace/alastria-demo/contracts/Authorisation.sol",
  "compiler": {
    "name": "solc",
    "version": "0.5.7+commit.6da8b019.Emscripten.clang"
  },
  "schemaVersion": "3.0.6",
  "updatedAt": "2020-06-04T08:48:33.561Z",
  "devdoc": {
    "details": "Contract module which provides an authorisation control mechanism, where there is an 'owner' that can grant access to a specific 'reader'. The 'reader' can request access to an 'owner'.",
    "methods": {
      "approveAuthorisation(address)": {
        "details": "Approves authorisation by the sender to the '_reader'."
      },
      "giveAuthorisation(address)": {
        "details": "Gives authorisation to the '_reader'."
      },
      "isAuthorised(address,address)": {
        "details": "Check authorisation of the '_reader' for the '_owner'."
      },
      "isOwner()": {
        "details": "Returns true if the caller is the current owner.\r"
      },
      "owner()": {
        "details": "Returns the address of the current owner.\r"
      },
      "removeAuthorisation(address)": {
        "details": "Removes authorisation to the '_reader'."
      },
      "renounceOwnership()": {
        "details": "Leaves the contract without owner. It will not be possible to call\r `onlyOwner` functions anymore. Can only be called by the current owner.\r      * NOTE: Renouncing ownership will leave the contract without an owner,\r thereby removing any functionality that is only available to the owner.\r"
      },
      "requestAuthorisation(address)": {
        "details": "Request auhtorisation of the sender to the '_owner'."
      },
      "transferOwnership(address)": {
        "details": "Transfers ownership of the contract to a new account (`newOwner`).\r Can only be called by the current owner.\r"
      }
    }
  },
  "userdoc": {
    "methods": {}
  }
}