{
  "contractName": "ApiKeySlots",
  "abi": [
    {
      "constant": false,
      "inputs": [
        {
          "name": "account",
          "type": "address"
        }
      ],
      "name": "addWhitelisted",
      "outputs": [],
      "payable": false,
      "stateMutability": "nonpayable",
      "type": "function"
    },
    {
      "constant": false,
      "inputs": [
        {
          "name": "account",
          "type": "address"
        }
      ],
      "name": "removeWhitelisted",
      "outputs": [],
      "payable": false,
      "stateMutability": "nonpayable",
      "type": "function"
    },
    {
      "constant": true,
      "inputs": [
        {
          "name": "account",
          "type": "address"
        }
      ],
      "name": "isWhitelisted",
      "outputs": [
        {
          "name": "",
          "type": "bool"
        }
      ],
      "payable": false,
      "stateMutability": "view",
      "type": "function"
    },
    {
      "constant": false,
      "inputs": [],
      "name": "renounceWhitelistAdmin",
      "outputs": [],
      "payable": false,
      "stateMutability": "nonpayable",
      "type": "function"
    },
    {
      "constant": false,
      "inputs": [
        {
          "name": "account",
          "type": "address"
        }
      ],
      "name": "addWhitelistAdmin",
      "outputs": [],
      "payable": false,
      "stateMutability": "nonpayable",
      "type": "function"
    },
    {
      "constant": true,
      "inputs": [
        {
          "name": "account",
          "type": "address"
        }
      ],
      "name": "isWhitelistAdmin",
      "outputs": [
        {
          "name": "",
          "type": "bool"
        }
      ],
      "payable": false,
      "stateMutability": "view",
      "type": "function"
    },
    {
      "constant": false,
      "inputs": [],
      "name": "renounceWhitelisted",
      "outputs": [],
      "payable": false,
      "stateMutability": "nonpayable",
      "type": "function"
    },
    {
      "inputs": [
        {
          "name": "_erc223Addr",
          "type": "address"
        }
      ],
      "payable": false,
      "stateMutability": "nonpayable",
      "type": "constructor"
    },
    {
      "anonymous": false,
      "inputs": [
        {
          "indexed": true,
          "name": "account",
          "type": "address"
        }
      ],
      "name": "WhitelistedAdded",
      "type": "event"
    },
    {
      "anonymous": false,
      "inputs": [
        {
          "indexed": true,
          "name": "account",
          "type": "address"
        }
      ],
      "name": "WhitelistedRemoved",
      "type": "event"
    },
    {
      "anonymous": false,
      "inputs": [
        {
          "indexed": true,
          "name": "account",
          "type": "address"
        }
      ],
      "name": "WhitelistAdminAdded",
      "type": "event"
    },
    {
      "anonymous": false,
      "inputs": [
        {
          "indexed": true,
          "name": "account",
          "type": "address"
        }
      ],
      "name": "WhitelistAdminRemoved",
      "type": "event"
    },
    {
      "constant": false,
      "inputs": [
        {
          "name": "_user",
          "type": "address"
        },
        {
          "name": "_amount",
          "type": "uint256"
        },
        {
          "name": "_data",
          "type": "bytes"
        }
      ],
      "name": "tokenFallback",
      "outputs": [],
      "payable": false,
      "stateMutability": "nonpayable",
      "type": "function"
    },
    {
      "constant": true,
      "inputs": [
        {
          "name": "_apiKey",
          "type": "string"
        }
      ],
      "name": "getApiKeySlot",
      "outputs": [
        {
          "components": [
            {
              "name": "apiKey",
              "type": "string"
            },
            {
              "name": "startDate",
              "type": "uint256"
            },
            {
              "name": "time",
              "type": "uint256"
            }
          ],
          "name": "",
          "type": "tuple"
        }
      ],
      "payable": false,
      "stateMutability": "view",
      "type": "function"
    },
    {
      "constant": false,
      "inputs": [],
      "name": "transferToSender",
      "outputs": [],
      "payable": false,
      "stateMutability": "nonpayable",
      "type": "function"
    }
  ],
  "bytecode": "0x60806040523480156200001157600080fd5b5060405160208062001591833981018060405262000033919081019062000267565b6200004d3362000095640100000000026401000000009004565b80600260006101000a81548173ffffffffffffffffffffffffffffffffffffffff021916908373ffffffffffffffffffffffffffffffffffffffff16021790555050620002c7565b620000b9816000620000ff640100000000026200095e179091906401000000009004565b8073ffffffffffffffffffffffffffffffffffffffff167f22380c05984257a1cb900161c713dd71d39e74820f1aea43bd3f1bdd2096129960405160405180910390a250565b600073ffffffffffffffffffffffffffffffffffffffff168173ffffffffffffffffffffffffffffffffffffffff1614156200013a57600080fd5b620001558282620001be640100000000026401000000009004565b156200016057600080fd5b60018260000160008373ffffffffffffffffffffffffffffffffffffffff1673ffffffffffffffffffffffffffffffffffffffff16815260200190815260200160002060006101000a81548160ff0219169083151502179055505050565b60008073ffffffffffffffffffffffffffffffffffffffff168273ffffffffffffffffffffffffffffffffffffffff161415620001fa57600080fd5b8260000160008373ffffffffffffffffffffffffffffffffffffffff1673ffffffffffffffffffffffffffffffffffffffff16815260200190815260200160002060009054906101000a900460ff16905092915050565b60006200025f825162000293565b905092915050565b6000602082840312156200027a57600080fd5b60006200028a8482850162000251565b91505092915050565b6000620002a082620002a7565b9050919050565b600073ffffffffffffffffffffffffffffffffffffffff82169050919050565b6112ba80620002d76000396000f3fe608060405234801561001057600080fd5b50600436106100bb576000357c0100000000000000000000000000000000000000000000000000000000900480637362d9c8116100835780637362d9c81461013c578063b547e50c14610158578063bb5f747b14610188578063c0ee0b8a146101b8578063d6cd9473146101d4576100bb565b806310154bad146100c05780631bb319ba146100dc578063291d9549146100e65780633af32abf146101025780634c5a628c14610132575b600080fd5b6100da60048036036100d59190810190610d7d565b6101de565b005b6100e46101fc565b005b61010060048036036100fb9190810190610d7d565b6103eb565b005b61011c60048036036101179190810190610d7d565b610409565b6040516101299190611038565b60405180910390f35b61013a610426565b005b61015660048036036101519190810190610d7d565b610431565b005b610172600480360361016d9190810190610e36565b61044f565b60405161017f9190611093565b60405180910390f35b6101a2600480360361019d9190810190610d7d565b610592565b6040516101af9190611038565b60405180910390f35b6101d260048036036101cd9190810190610da6565b6105af565b005b6101dc61069f565b005b6101e733610592565b6101f057600080fd5b6101f9816106aa565b50565b61020533610409565b61020e57600080fd5b6000600260009054906101000a900473ffffffffffffffffffffffffffffffffffffffff1673ffffffffffffffffffffffffffffffffffffffff166370a08231306040518263ffffffff167c01000000000000000000000000000000000000000000000000000000000281526004016102879190610ff4565b60206040518083038186803b15801561029f57600080fd5b505afa1580156102b3573d6000803e3d6000fd5b505050506040513d601f19601f820116820180604052506102d79190810190610e77565b90506000811161031c576040517f08c379a000000000000000000000000000000000000000000000000000000000815260040161031390611053565b60405180910390fd5b600260009054906101000a900473ffffffffffffffffffffffffffffffffffffffff1673ffffffffffffffffffffffffffffffffffffffff1663a9059cbb33836040518363ffffffff167c010000000000000000000000000000000000000000000000000000000002815260040161039592919061100f565b602060405180830381600087803b1580156103af57600080fd5b505af11580156103c3573d6000803e3d6000fd5b505050506040513d601f19601f820116820180604052506103e79190810190610e0d565b5050565b6103f433610592565b6103fd57600080fd5b61040681610704565b50565b600061041f82600161075e90919063ffffffff16565b9050919050565b61042f336107f0565b565b61043a33610592565b61044357600080fd5b61044c8161084a565b50565b610457610ba5565b60008280519060200120905061046b610ba5565b60036000838152602001908152602001600020604051806060016040529081600082018054600181600116156101000203166002900480601f0160208091040260200160405190810160405280929190818152602001828054600181600116156101000203166002900480156105225780601f106104f757610100808354040283529160200191610522565b820191906000526020600020905b81548152906001019060200180831161050557829003601f168201915b505050505081526020016001820154815260200160028201548152505090506000816020015111610588576040517f08c379a000000000000000000000000000000000000000000000000000000000815260040161057f90611073565b60405180910390fd5b8092505050919050565b60006105a882600061075e90919063ffffffff16565b9050919050565b6105b833610409565b6105c157600080fd5b6105c9610bc6565b6105d2826108a4565b905060606105df826108d2565b905060008180519060200120905060006003600083815260200190815260200160002090506000816001015414156106495782816000019080519060200190610629929190610be0565b504281600101819055506018603c80880202028160020181905550610696565b428160020154826001015401111561067a576018603c80880202028160020160008282540192505081905550610695565b4281600101819055506018603c808802020281600201819055505b5b50505050505050565b6106a833610704565b565b6106be81600161095e90919063ffffffff16565b8073ffffffffffffffffffffffffffffffffffffffff167fee1504a83b6d4a361f4c1dc78ab59bfa30d6a3b6612c403e86bb01ef2984295f60405160405180910390a250565b610718816001610a0a90919063ffffffff16565b8073ffffffffffffffffffffffffffffffffffffffff167f270d9b30cf5b0793bbfd54c9d5b94aeb49462b8148399000265144a8722da6b660405160405180910390a250565b60008073ffffffffffffffffffffffffffffffffffffffff168273ffffffffffffffffffffffffffffffffffffffff16141561079957600080fd5b8260000160008373ffffffffffffffffffffffffffffffffffffffff1673ffffffffffffffffffffffffffffffffffffffff16815260200190815260200160002060009054906101000a900460ff16905092915050565b610804816000610a0a90919063ffffffff16565b8073ffffffffffffffffffffffffffffffffffffffff167f0a8eb35e5ca14b3d6f28e4abf2f128dbab231a58b56e89beb5d636115001e16560405160405180910390a250565b61085e81600061095e90919063ffffffff16565b8073ffffffffffffffffffffffffffffffffffffffff167f22380c05984257a1cb900161c713dd71d39e74820f1aea43bd3f1bdd2096129960405160405180910390a250565b6108ac610bc6565b600060208301905060405180604001604052808451815260200182815250915050919050565b606060008260000151116108e557600080fd5b60006108f48360200151610ab5565b905060008184600001510390506060816040519080825280601f01601f1916602001820160405280156109365781602001600182028038833980820191505090505b5090506000816020019050610952848760200151018285610b3e565b81945050505050919050565b600073ffffffffffffffffffffffffffffffffffffffff168173ffffffffffffffffffffffffffffffffffffffff16141561099857600080fd5b6109a2828261075e565b156109ac57600080fd5b60018260000160008373ffffffffffffffffffffffffffffffffffffffff1673ffffffffffffffffffffffffffffffffffffffff16815260200190815260200160002060006101000a81548160ff0219169083151502179055505050565b600073ffffffffffffffffffffffffffffffffffffffff168173ffffffffffffffffffffffffffffffffffffffff161415610a4457600080fd5b610a4e828261075e565b610a5757600080fd5b60008260000160008373ffffffffffffffffffffffffffffffffffffffff1673ffffffffffffffffffffffffffffffffffffffff16815260200190815260200160002060006101000a81548160ff0219169083151502179055505050565b600080825160001a9050608060ff16811015610ad5576000915050610b39565b60b860ff16811080610afa575060c060ff168110158015610af9575060f860ff1681105b5b15610b09576001915050610b39565b60c060ff16811015610b295760018060b80360ff16820301915050610b39565b60018060f80360ff168203019150505b919050565b6000811415610b4c57610ba0565b5b602060ff168110610b7c5782518252602060ff1683019250602060ff1682019150602060ff1681039050610b4d565b6000600182602060ff16036101000a03905080198451168184511681811785525050505b505050565b60405180606001604052806060815260200160008152602001600081525090565b604051806040016040528060008152602001600081525090565b828054600181600116156101000203166002900490600052602060002090601f016020900481019282601f10610c2157805160ff1916838001178555610c4f565b82800160010185558215610c4f579182015b82811115610c4e578251825591602001919060010190610c33565b5b509050610c5c9190610c60565b5090565b610c8291905b80821115610c7e576000816000905550600101610c66565b5090565b90565b6000610c9182356111af565b905092915050565b6000610ca582516111c1565b905092915050565b600082601f830112610cbe57600080fd5b8135610cd1610ccc826110e2565b6110b5565b91508082526020830160208301858383011115610ced57600080fd5b610cf883828461122d565b50505092915050565b600082601f830112610d1257600080fd5b8135610d25610d208261110e565b6110b5565b91508082526020830160208301858383011115610d4157600080fd5b610d4c83828461122d565b50505092915050565b6000610d6182356111ed565b905092915050565b6000610d7582516111ed565b905092915050565b600060208284031215610d8f57600080fd5b6000610d9d84828501610c85565b91505092915050565b600080600060608486031215610dbb57600080fd5b6000610dc986828701610c85565b9350506020610dda86828701610d55565b925050604084013567ffffffffffffffff811115610df757600080fd5b610e0386828701610cad565b9150509250925092565b600060208284031215610e1f57600080fd5b6000610e2d84828501610c99565b91505092915050565b600060208284031215610e4857600080fd5b600082013567ffffffffffffffff811115610e6257600080fd5b610e6e84828501610d01565b91505092915050565b600060208284031215610e8957600080fd5b6000610e9784828501610d69565b91505092915050565b610ea9816111f7565b82525050565b610eb881611167565b82525050565b610ec781611179565b82525050565b6000610ed88261113a565b610ee28185611145565b9350610ef281856020860161123c565b610efb8161126f565b840191505092915050565b6000610f13601b83611156565b91507f656d707479207472616e7366657273206e6f7420616c6c6f77656400000000006000830152602082019050919050565b6000610f53600983611156565b91507f6e6f7420657869737400000000000000000000000000000000000000000000006000830152602082019050919050565b60006060830160008301518482036000860152610fa38282610ecd565b9150506020830151610fb86020860182610fd6565b506040830151610fcb6040860182610fd6565b508091505092915050565b610fdf816111a5565b82525050565b610fee816111a5565b82525050565b60006020820190506110096000830184610eaf565b92915050565b60006040820190506110246000830185610ea0565b6110316020830184610fe5565b9392505050565b600060208201905061104d6000830184610ebe565b92915050565b6000602082019050818103600083015261106c81610f06565b9050919050565b6000602082019050818103600083015261108c81610f46565b9050919050565b600060208201905081810360008301526110ad8184610f86565b905092915050565b6000604051905081810181811067ffffffffffffffff821117156110d857600080fd5b8060405250919050565b600067ffffffffffffffff8211156110f957600080fd5b601f19601f8301169050602081019050919050565b600067ffffffffffffffff82111561112557600080fd5b601f19601f8301169050602081019050919050565b600081519050919050565b600082825260208201905092915050565b600082825260208201905092915050565b600061117282611185565b9050919050565b60008115159050919050565b600073ffffffffffffffffffffffffffffffffffffffff82169050919050565b6000819050919050565b60006111ba826111cd565b9050919050565b60008115159050919050565b600073ffffffffffffffffffffffffffffffffffffffff82169050919050565b6000819050919050565b600061120282611209565b9050919050565b60006112148261121b565b9050919050565b600061122682611185565b9050919050565b82818337600083830152505050565b60005b8381101561125a57808201518184015260208101905061123f565b83811115611269576000848401525b50505050565b6000601f19601f830116905091905056fea265627a7a72305820bfa0bdc936ef2c3d32e4c0f3d075f5473ec1247616dfcc22e4debc39721c2e0d6c6578706572696d656e74616cf50037",
  "source": "pragma solidity ^0.5.2;\npragma experimental ABIEncoderV2;\n\nimport \"bloomen-token/contracts/ERC223ReceivingContract.sol\";\nimport \"bloomen-token/contracts/ERC223.sol\";\nimport \"solidity-rlp/contracts/RLPReader.sol\";\nimport \"openzeppelin-solidity/contracts/math/SafeMath.sol\";\nimport \"openzeppelin-solidity/contracts/access/roles/WhitelistedRole.sol\";\n\ncontract ApiKeySlots is ERC223ReceivingContract, WhitelistedRole{\n\n  using SafeMath for uint256;\n  using RLPReader for bytes;\n  using RLPReader for uint;\n  using RLPReader for RLPReader.RLPItem;\n\n  struct ApiKey {\n    string apiKey;\n    uint256 startDate;\n    uint256 time;\n  }\n\n  uint256 constant private PAGE_SIZE = 10;\n\n  ERC223 private _erc223;\n\n  mapping (bytes32 => ApiKey) private apiKeys_;\n\n  constructor (address _erc223Addr) public {\n    _erc223 = ERC223(_erc223Addr);\n  }\n\n  function tokenFallback(address _user, uint _amount, bytes memory _data) public onlyWhitelisted {\n    RLPReader.RLPItem memory item = _data.toRlpItem();\n    string memory apikey = string(item.toBytes());\n    bytes32 apikeyHash = keccak256(bytes(apikey));\n    ApiKey storage apiKey = apiKeys_[apikeyHash];\n\n    // 1 token === 1 day \n\n    if (apiKey.startDate == 0) {\n      // new apikey\n      apiKey.apiKey = apikey;\n      apiKey.startDate = now;\n      apiKey.time = _amount * 60 * 60 * 24;\n\n    } else if ((apiKey.startDate + apiKey.time) > now) {\n      // add time to the apikey\n      apiKey.time += _amount * 60 * 60 * 24;\n    } else {\n      //expired apikey\n      apiKey.startDate = now;\n      apiKey.time = _amount * 60 * 60 * 24;\n    }\n  }\n\n  function getApiKeySlot(string memory _apiKey) public view returns (ApiKey memory) {\n    bytes32 apikeyHash = keccak256(bytes(_apiKey));\n    ApiKey memory apiKey = apiKeys_[apikeyHash];\n    require(apiKey.startDate > 0, \"not exist\");\n    return apiKey;\n  }\n\n  function transferToSender() public onlyWhitelisted  {\n    uint256 balance = _erc223.balanceOf(address(this));\n    require(balance > 0, \"empty transfers not allowed\");\n    _erc223.transfer(msg.sender,balance);\n  }\n\n}",
  "sourcePath": "/home/jordi/ws/nestjs/bloomen-developer-portal/truffle/contracts/bloomen/ApiKeys.sol",
  "compiler": {
    "name": "solc",
    "version": "0.5.7+commit.6da8b019.Emscripten.clang"
  },
  "schemaVersion": "3.0.6",
  "updatedAt": "2019-08-28T12:18:05.018Z",
  "devdoc": {
    "methods": {}
  },
  "userdoc": {
    "methods": {}
  }
}