{
  "contractName": "ApiKeys",
  "abi": [
    {
      "constant": false,
      "inputs": [
        {
          "name": "account",
          "type": "address"
        }
      ],
      "name": "addWhitelisted",
      "outputs": [],
      "payable": false,
      "stateMutability": "nonpayable",
      "type": "function",
      "signature": "0x10154bad"
    },
    {
      "constant": false,
      "inputs": [
        {
          "name": "account",
          "type": "address"
        }
      ],
      "name": "removeWhitelisted",
      "outputs": [],
      "payable": false,
      "stateMutability": "nonpayable",
      "type": "function",
      "signature": "0x291d9549"
    },
    {
      "constant": true,
      "inputs": [
        {
          "name": "account",
          "type": "address"
        }
      ],
      "name": "isWhitelisted",
      "outputs": [
        {
          "name": "",
          "type": "bool"
        }
      ],
      "payable": false,
      "stateMutability": "view",
      "type": "function",
      "signature": "0x3af32abf"
    },
    {
      "constant": false,
      "inputs": [],
      "name": "renounceWhitelistAdmin",
      "outputs": [],
      "payable": false,
      "stateMutability": "nonpayable",
      "type": "function",
      "signature": "0x4c5a628c"
    },
    {
      "constant": false,
      "inputs": [
        {
          "name": "account",
          "type": "address"
        }
      ],
      "name": "addWhitelistAdmin",
      "outputs": [],
      "payable": false,
      "stateMutability": "nonpayable",
      "type": "function",
      "signature": "0x7362d9c8"
    },
    {
      "constant": true,
      "inputs": [
        {
          "name": "account",
          "type": "address"
        }
      ],
      "name": "isWhitelistAdmin",
      "outputs": [
        {
          "name": "",
          "type": "bool"
        }
      ],
      "payable": false,
      "stateMutability": "view",
      "type": "function",
      "signature": "0xbb5f747b"
    },
    {
      "constant": false,
      "inputs": [],
      "name": "renounceWhitelisted",
      "outputs": [],
      "payable": false,
      "stateMutability": "nonpayable",
      "type": "function",
      "signature": "0xd6cd9473"
    },
    {
      "inputs": [
        {
          "name": "_erc223Addr",
          "type": "address"
        }
      ],
      "payable": false,
      "stateMutability": "nonpayable",
      "type": "constructor",
      "signature": "constructor"
    },
    {
      "anonymous": false,
      "inputs": [
        {
          "indexed": true,
          "name": "account",
          "type": "address"
        }
      ],
      "name": "WhitelistedAdded",
      "type": "event",
      "signature": "0xee1504a83b6d4a361f4c1dc78ab59bfa30d6a3b6612c403e86bb01ef2984295f"
    },
    {
      "anonymous": false,
      "inputs": [
        {
          "indexed": true,
          "name": "account",
          "type": "address"
        }
      ],
      "name": "WhitelistedRemoved",
      "type": "event",
      "signature": "0x270d9b30cf5b0793bbfd54c9d5b94aeb49462b8148399000265144a8722da6b6"
    },
    {
      "anonymous": false,
      "inputs": [
        {
          "indexed": true,
          "name": "account",
          "type": "address"
        }
      ],
      "name": "WhitelistAdminAdded",
      "type": "event",
      "signature": "0x22380c05984257a1cb900161c713dd71d39e74820f1aea43bd3f1bdd20961299"
    },
    {
      "anonymous": false,
      "inputs": [
        {
          "indexed": true,
          "name": "account",
          "type": "address"
        }
      ],
      "name": "WhitelistAdminRemoved",
      "type": "event",
      "signature": "0x0a8eb35e5ca14b3d6f28e4abf2f128dbab231a58b56e89beb5d636115001e165"
    },
    {
      "constant": false,
      "inputs": [
        {
          "name": "_user",
          "type": "address"
        },
        {
          "name": "_amount",
          "type": "uint256"
        },
        {
          "name": "_data",
          "type": "bytes"
        }
      ],
      "name": "tokenFallback",
      "outputs": [],
      "payable": false,
      "stateMutability": "nonpayable",
      "type": "function",
      "signature": "0xc0ee0b8a"
    },
    {
      "constant": true,
      "inputs": [
        {
          "name": "_apiKey",
          "type": "string"
        }
      ],
      "name": "getApiKey",
      "outputs": [
        {
          "components": [
            {
              "name": "apiKey",
              "type": "string"
            },
            {
              "name": "startDate",
              "type": "uint256"
            },
            {
              "name": "time",
              "type": "uint256"
            }
          ],
          "name": "",
          "type": "tuple"
        }
      ],
      "payable": false,
      "stateMutability": "view",
      "type": "function",
      "signature": "0x3864d838"
    },
    {
      "constant": false,
      "inputs": [],
      "name": "transferToSender",
      "outputs": [],
      "payable": false,
      "stateMutability": "nonpayable",
      "type": "function",
      "signature": "0x1bb319ba"
    }
  ],
  "bytecode": "0x60806040523480156200001157600080fd5b5060405160208062001816833981018060405262000033919081019062000267565b6200004d3362000095640100000000026401000000009004565b80600260006101000a81548173ffffffffffffffffffffffffffffffffffffffff021916908373ffffffffffffffffffffffffffffffffffffffff16021790555050620002c7565b620000b9816000620000ff6401000000000262000a57179091906401000000009004565b8073ffffffffffffffffffffffffffffffffffffffff167f22380c05984257a1cb900161c713dd71d39e74820f1aea43bd3f1bdd2096129960405160405180910390a250565b600073ffffffffffffffffffffffffffffffffffffffff168173ffffffffffffffffffffffffffffffffffffffff1614156200013a57600080fd5b620001558282620001be640100000000026401000000009004565b156200016057600080fd5b60018260000160008373ffffffffffffffffffffffffffffffffffffffff1673ffffffffffffffffffffffffffffffffffffffff16815260200190815260200160002060006101000a81548160ff0219169083151502179055505050565b60008073ffffffffffffffffffffffffffffffffffffffff168273ffffffffffffffffffffffffffffffffffffffff161415620001fa57600080fd5b8260000160008373ffffffffffffffffffffffffffffffffffffffff1673ffffffffffffffffffffffffffffffffffffffff16815260200190815260200160002060009054906101000a900460ff16905092915050565b60006200025f825162000293565b905092915050565b6000602082840312156200027a57600080fd5b60006200028a8482850162000251565b91505092915050565b6000620002a082620002a7565b9050919050565b600073ffffffffffffffffffffffffffffffffffffffff82169050919050565b61153f80620002d76000396000f3fe608060405234801561001057600080fd5b50600436106100bb576000357c0100000000000000000000000000000000000000000000000000000000900480634c5a628c116100835780634c5a628c146101625780637362d9c81461016c578063bb5f747b14610188578063c0ee0b8a146101b8578063d6cd9473146101d4576100bb565b806310154bad146100c05780631bb319ba146100dc578063291d9549146100e65780633864d838146101025780633af32abf14610132575b600080fd5b6100da60048036036100d59190810190611002565b6101de565b005b6100e46101fc565b005b61010060048036036100fb9190810190611002565b6103eb565b005b61011c600480360361011791908101906110bb565b610409565b6040516101299190611318565b60405180910390f35b61014c60048036036101479190810190611002565b61054c565b60405161015991906112bd565b60405180910390f35b61016a610569565b005b61018660048036036101819190810190611002565b610574565b005b6101a2600480360361019d9190810190611002565b610592565b6040516101af91906112bd565b60405180910390f35b6101d260048036036101cd919081019061102b565b6105af565b005b6101dc6106c1565b005b6101e733610592565b6101f057600080fd5b6101f9816106cc565b50565b6102053361054c565b61020e57600080fd5b6000600260009054906101000a900473ffffffffffffffffffffffffffffffffffffffff1673ffffffffffffffffffffffffffffffffffffffff166370a08231306040518263ffffffff167c01000000000000000000000000000000000000000000000000000000000281526004016102879190611279565b60206040518083038186803b15801561029f57600080fd5b505afa1580156102b3573d6000803e3d6000fd5b505050506040513d601f19601f820116820180604052506102d791908101906110fc565b90506000811161031c576040517f08c379a0000000000000000000000000000000000000000000000000000000008152600401610313906112d8565b60405180910390fd5b600260009054906101000a900473ffffffffffffffffffffffffffffffffffffffff1673ffffffffffffffffffffffffffffffffffffffff1663a9059cbb33836040518363ffffffff167c0100000000000000000000000000000000000000000000000000000000028152600401610395929190611294565b602060405180830381600087803b1580156103af57600080fd5b505af11580156103c3573d6000803e3d6000fd5b505050506040513d601f19601f820116820180604052506103e79190810190611092565b5050565b6103f433610592565b6103fd57600080fd5b61040681610726565b50565b610411610e10565b600082805190602001209050610425610e10565b60036000838152602001908152602001600020604051806060016040529081600082018054600181600116156101000203166002900480601f0160208091040260200160405190810160405280929190818152602001828054600181600116156101000203166002900480156104dc5780601f106104b1576101008083540402835291602001916104dc565b820191906000526020600020905b8154815290600101906020018083116104bf57829003601f168201915b505050505081526020016001820154815260200160028201548152505090506000816020015111610542576040517f08c379a0000000000000000000000000000000000000000000000000000000008152600401610539906112f8565b60405180910390fd5b8092505050919050565b600061056282600161078090919063ffffffff16565b9050919050565b61057233610812565b565b61057d33610592565b61058657600080fd5b61058f8161086c565b50565b60006105a882600061078090919063ffffffff16565b9050919050565b6105b83361054c565b6105c157600080fd5b6105c9610e31565b6105d2826108c6565b905060606105df826108f4565b90506060610600826001815181106105f357fe5b60200260200101516109cb565b9050600081805190602001209050600060036000838152602001908152602001600020905060008160010154141561066a578281600001908051906020019061064a929190610e4b565b504281600101819055506018603c808902020281600201819055506106b7565b428160020154826001015401111561069b576018603c808902020281600201600082825401925050819055506106b6565b4281600101819055506018603c808902020281600201819055505b5b5050505050505050565b6106ca33610726565b565b6106e0816001610a5790919063ffffffff16565b8073ffffffffffffffffffffffffffffffffffffffff167fee1504a83b6d4a361f4c1dc78ab59bfa30d6a3b6612c403e86bb01ef2984295f60405160405180910390a250565b61073a816001610b0390919063ffffffff16565b8073ffffffffffffffffffffffffffffffffffffffff167f270d9b30cf5b0793bbfd54c9d5b94aeb49462b8148399000265144a8722da6b660405160405180910390a250565b60008073ffffffffffffffffffffffffffffffffffffffff168273ffffffffffffffffffffffffffffffffffffffff1614156107bb57600080fd5b8260000160008373ffffffffffffffffffffffffffffffffffffffff1673ffffffffffffffffffffffffffffffffffffffff16815260200190815260200160002060009054906101000a900460ff16905092915050565b610826816000610b0390919063ffffffff16565b8073ffffffffffffffffffffffffffffffffffffffff167f0a8eb35e5ca14b3d6f28e4abf2f128dbab231a58b56e89beb5d636115001e16560405160405180910390a250565b610880816000610a5790919063ffffffff16565b8073ffffffffffffffffffffffffffffffffffffffff167f22380c05984257a1cb900161c713dd71d39e74820f1aea43bd3f1bdd2096129960405160405180910390a250565b6108ce610e31565b600060208301905060405180604001604052808451815260200182815250915050919050565b60606108ff82610bae565b61090857600080fd5b600061091383610bfc565b90508060405190808252806020026020018201604052801561094f57816020015b61093c610ecb565b8152602001906001900390816109345790505b50915060006109618460200151610c6d565b8460200151019050600080600090505b838110156109c25761098283610cf6565b91506040518060400160405280838152602001848152508582815181106109a557fe5b602002602001018190525081830192508080600101915050610971565b50505050919050565b606060008260000151116109de57600080fd5b60006109ed8360200151610c6d565b905060008184600001510390506060816040519080825280601f01601f191660200182016040528015610a2f5781602001600182028038833980820191505090505b5090506000816020019050610a4b848760200151018285610da9565b81945050505050919050565b600073ffffffffffffffffffffffffffffffffffffffff168173ffffffffffffffffffffffffffffffffffffffff161415610a9157600080fd5b610a9b8282610780565b15610aa557600080fd5b60018260000160008373ffffffffffffffffffffffffffffffffffffffff1673ffffffffffffffffffffffffffffffffffffffff16815260200190815260200160002060006101000a81548160ff0219169083151502179055505050565b600073ffffffffffffffffffffffffffffffffffffffff168173ffffffffffffffffffffffffffffffffffffffff161415610b3d57600080fd5b610b478282610780565b610b5057600080fd5b60008260000160008373ffffffffffffffffffffffffffffffffffffffff1673ffffffffffffffffffffffffffffffffffffffff16815260200190815260200160002060006101000a81548160ff0219169083151502179055505050565b60008082600001511415610bc55760009050610bf7565b60008083602001519050805160001a915060c060ff168260ff161015610bf057600092505050610bf7565b6001925050505b919050565b60008082600001511415610c135760009050610c68565b60008090506000610c278460200151610c6d565b84602001510190506000846000015185602001510190505b80821015610c6157610c5082610cf6565b820191508280600101935050610c3f565b8293505050505b919050565b600080825160001a9050608060ff16811015610c8d576000915050610cf1565b60b860ff16811080610cb2575060c060ff168110158015610cb1575060f860ff1681105b5b15610cc1576001915050610cf1565b60c060ff16811015610ce15760018060b80360ff16820301915050610cf1565b60018060f80360ff168203019150505b919050565b600080825160001a9050608060ff16811015610d16576001915050610da4565b60b860ff16811015610d34576001608060ff16820301915050610da4565b60c060ff16811015610d645760b78103600184019350806020036101000a84510460018201810193505050610da2565b60f860ff16811015610d8257600160c060ff16820301915050610da4565b60f78103600184019350806020036101000a845104600182018101935050505b505b919050565b6000811415610db757610e0b565b5b602060ff168110610de75782518252602060ff1683019250602060ff1682019150602060ff1681039050610db8565b6000600182602060ff16036101000a03905080198451168184511681811785525050505b505050565b60405180606001604052806060815260200160008152602001600081525090565b604051806040016040528060008152602001600081525090565b828054600181600116156101000203166002900490600052602060002090601f016020900481019282601f10610e8c57805160ff1916838001178555610eba565b82800160010185558215610eba579182015b82811115610eb9578251825591602001919060010190610e9e565b5b509050610ec79190610ee5565b5090565b604051806040016040528060008152602001600081525090565b610f0791905b80821115610f03576000816000905550600101610eeb565b5090565b90565b6000610f168235611434565b905092915050565b6000610f2a8251611446565b905092915050565b600082601f830112610f4357600080fd5b8135610f56610f5182611367565b61133a565b91508082526020830160208301858383011115610f7257600080fd5b610f7d8382846114b2565b50505092915050565b600082601f830112610f9757600080fd5b8135610faa610fa582611393565b61133a565b91508082526020830160208301858383011115610fc657600080fd5b610fd18382846114b2565b50505092915050565b6000610fe68235611472565b905092915050565b6000610ffa8251611472565b905092915050565b60006020828403121561101457600080fd5b600061102284828501610f0a565b91505092915050565b60008060006060848603121561104057600080fd5b600061104e86828701610f0a565b935050602061105f86828701610fda565b925050604084013567ffffffffffffffff81111561107c57600080fd5b61108886828701610f32565b9150509250925092565b6000602082840312156110a457600080fd5b60006110b284828501610f1e565b91505092915050565b6000602082840312156110cd57600080fd5b600082013567ffffffffffffffff8111156110e757600080fd5b6110f384828501610f86565b91505092915050565b60006020828403121561110e57600080fd5b600061111c84828501610fee565b91505092915050565b61112e8161147c565b82525050565b61113d816113ec565b82525050565b61114c816113fe565b82525050565b600061115d826113bf565b61116781856113ca565b93506111778185602086016114c1565b611180816114f4565b840191505092915050565b6000611198601b836113db565b91507f656d707479207472616e7366657273206e6f7420616c6c6f77656400000000006000830152602082019050919050565b60006111d86009836113db565b91507f6e6f7420657869737400000000000000000000000000000000000000000000006000830152602082019050919050565b600060608301600083015184820360008601526112288282611152565b915050602083015161123d602086018261125b565b506040830151611250604086018261125b565b508091505092915050565b6112648161142a565b82525050565b6112738161142a565b82525050565b600060208201905061128e6000830184611134565b92915050565b60006040820190506112a96000830185611125565b6112b6602083018461126a565b9392505050565b60006020820190506112d26000830184611143565b92915050565b600060208201905081810360008301526112f18161118b565b9050919050565b60006020820190508181036000830152611311816111cb565b9050919050565b60006020820190508181036000830152611332818461120b565b905092915050565b6000604051905081810181811067ffffffffffffffff8211171561135d57600080fd5b8060405250919050565b600067ffffffffffffffff82111561137e57600080fd5b601f19601f8301169050602081019050919050565b600067ffffffffffffffff8211156113aa57600080fd5b601f19601f8301169050602081019050919050565b600081519050919050565b600082825260208201905092915050565b600082825260208201905092915050565b60006113f78261140a565b9050919050565b60008115159050919050565b600073ffffffffffffffffffffffffffffffffffffffff82169050919050565b6000819050919050565b600061143f82611452565b9050919050565b60008115159050919050565b600073ffffffffffffffffffffffffffffffffffffffff82169050919050565b6000819050919050565b60006114878261148e565b9050919050565b6000611499826114a0565b9050919050565b60006114ab8261140a565b9050919050565b82818337600083830152505050565b60005b838110156114df5780820151818401526020810190506114c4565b838111156114ee576000848401525b50505050565b6000601f19601f830116905091905056fea265627a7a723058201c26dd1e9b3214c9c28485e499cb37ada9fb386c76ea8f627060b0e8c57969596c6578706572696d656e74616cf50037",
  "source": "pragma solidity ^0.5.2;\npragma experimental ABIEncoderV2;\n\nimport \"bloomen-token/contracts/ERC223ReceivingContract.sol\";\nimport \"bloomen-token/contracts/ERC223.sol\";\nimport \"solidity-rlp/contracts/RLPReader.sol\";\nimport \"openzeppelin-solidity/contracts/math/SafeMath.sol\";\nimport \"openzeppelin-solidity/contracts/access/roles/WhitelistedRole.sol\";\n\ncontract ApiKeys is ERC223ReceivingContract, WhitelistedRole{\n\n  using SafeMath for uint256;\n  using RLPReader for bytes;\n  using RLPReader for uint;\n  using RLPReader for RLPReader.RLPItem;\n\n  struct ApiKey {\n    string apiKey;\n    uint256 startDate;\n    uint256 time;\n  }\n\n  uint256 constant private PAGE_SIZE = 10;\n\n  ERC223 private _erc223;\n\n  mapping (bytes32 => ApiKey) private apiKeys_;\n\n  constructor (address _erc223Addr) public {\n    _erc223 = ERC223(_erc223Addr);\n  }\n\n  function tokenFallback(address _user, uint _amount, bytes memory _data) public onlyWhitelisted {\n    RLPReader.RLPItem memory item = _data.toRlpItem();\n    RLPReader.RLPItem[] memory itemList = item.toList();                    \n    string memory apikey = string(itemList[1].toBytes());\n    bytes32 apikeyHash = keccak256(bytes(apikey));\n    ApiKey storage apiKey = apiKeys_[apikeyHash];\n\n    // 1 token === 1 day \n\n    if (apiKey.startDate == 0) {\n      // new apikey\n      apiKey.apiKey = apikey;\n      apiKey.startDate = now;\n      apiKey.time = _amount * 60 * 60 * 24;\n\n    } else if ((apiKey.startDate + apiKey.time) > now) {\n      // add time to the apikey\n      apiKey.time += _amount * 60 * 60 * 24;\n    } else {\n      //expired apikey\n      apiKey.startDate = now;\n      apiKey.time = _amount * 60 * 60 * 24;\n    }\n  }\n\n  function getApiKey(string memory _apiKey) public view returns (ApiKey memory) {\n    bytes32 apikeyHash = keccak256(bytes(_apiKey));\n    ApiKey memory apiKey = apiKeys_[apikeyHash];\n    require(apiKey.startDate > 0, \"not exist\");\n    return apiKey;\n  }\n\n  function transferToSender() public onlyWhitelisted  {\n    uint256 balance = _erc223.balanceOf(address(this));\n    require(balance > 0, \"empty transfers not allowed\");\n    _erc223.transfer(msg.sender,balance);\n  }\n\n}",
  "sourcePath": "/home/jordi/ws/nestjs/bloomen-developer-portal/truffle/contracts/bloomen/ApiKeys.sol",
  "compiler": {
    "name": "solc",
    "version": "0.5.7+commit.6da8b019.Emscripten.clang"
  },
  "schemaVersion": "3.0.6",
  "updatedAt": "2019-10-10T08:35:03.734Z",
  "devdoc": {
    "methods": {}
  },
  "userdoc": {
    "methods": {}
  }
}